{
  "contracts/TimeLockedWallet.sol": {
    "TimeLockedWallet": {
      "abi": [
        {
          "inputs": [
            {
              "internalType": "address",
              "name": "_creator",
              "type": "address"
            },
            {
              "internalType": "address",
              "name": "_owner",
              "type": "address"
            },
            {
              "internalType": "uint256",
              "name": "_unlockDate",
              "type": "uint256"
            }
          ],
          "stateMutability": "nonpayable",
          "type": "constructor"
        },
        {
          "anonymous": false,
          "inputs": [
            {
              "indexed": false,
              "internalType": "address",
              "name": "from",
              "type": "address"
            },
            {
              "indexed": false,
              "internalType": "uint256",
              "name": "amount",
              "type": "uint256"
            }
          ],
          "name": "Received",
          "type": "event"
        },
        {
          "anonymous": false,
          "inputs": [
            {
              "indexed": false,
              "internalType": "address",
              "name": "to",
              "type": "address"
            },
            {
              "indexed": false,
              "internalType": "uint256",
              "name": "amount",
              "type": "uint256"
            }
          ],
          "name": "Withdrew",
          "type": "event"
        },
        {
          "anonymous": false,
          "inputs": [
            {
              "indexed": false,
              "internalType": "address",
              "name": "tokenContract",
              "type": "address"
            },
            {
              "indexed": false,
              "internalType": "address",
              "name": "to",
              "type": "address"
            },
            {
              "indexed": false,
              "internalType": "uint256",
              "name": "amount",
              "type": "uint256"
            }
          ],
          "name": "WithdrewTokens",
          "type": "event"
        },
        {
          "inputs": [],
          "name": "createdAt",
          "outputs": [
            {
              "internalType": "uint256",
              "name": "",
              "type": "uint256"
            }
          ],
          "stateMutability": "view",
          "type": "function"
        },
        {
          "inputs": [],
          "name": "creator",
          "outputs": [
            {
              "internalType": "address",
              "name": "",
              "type": "address"
            }
          ],
          "stateMutability": "view",
          "type": "function"
        },
        {
          "inputs": [],
          "name": "info",
          "outputs": [
            {
              "internalType": "address",
              "name": "",
              "type": "address"
            },
            {
              "internalType": "address",
              "name": "",
              "type": "address"
            },
            {
              "internalType": "uint256",
              "name": "",
              "type": "uint256"
            },
            {
              "internalType": "uint256",
              "name": "",
              "type": "uint256"
            },
            {
              "internalType": "uint256",
              "name": "",
              "type": "uint256"
            }
          ],
          "stateMutability": "view",
          "type": "function"
        },
        {
          "inputs": [],
          "name": "owner",
          "outputs": [
            {
              "internalType": "address",
              "name": "",
              "type": "address"
            }
          ],
          "stateMutability": "view",
          "type": "function"
        },
        {
          "inputs": [],
          "name": "unlockDate",
          "outputs": [
            {
              "internalType": "uint256",
              "name": "",
              "type": "uint256"
            }
          ],
          "stateMutability": "view",
          "type": "function"
        },
        {
          "inputs": [],
          "name": "withdraw",
          "outputs": [],
          "stateMutability": "nonpayable",
          "type": "function"
        },
        {
          "inputs": [
            {
              "internalType": "address",
              "name": "_tokenContract",
              "type": "address"
            }
          ],
          "name": "withdrawTokens",
          "outputs": [],
          "stateMutability": "nonpayable",
          "type": "function"
        }
      ],
      "evm": {
        "bytecode": {
          "linkReferences": {},
          "object": "60806040523480156200001157600080fd5b5060405162000c5138038062000c5183398181016040528101906200003791906200010b565b826000806101000a81548173ffffffffffffffffffffffffffffffffffffffff021916908373ffffffffffffffffffffffffffffffffffffffff16021790555081600160006101000a81548173ffffffffffffffffffffffffffffffffffffffff021916908373ffffffffffffffffffffffffffffffffffffffff16021790555080600281905550600f43620000ce919062000161565b60038190555050505062000263565b600081519050620000ee816200022f565b92915050565b600081519050620001058162000249565b92915050565b6000806000606084860312156200012157600080fd5b60006200013186828701620000dd565b93505060206200014486828701620000dd565b92505060406200015786828701620000f4565b9150509250925092565b60006200016e82620001f6565b91506200017b83620001f6565b9250817fffffffffffffffffffffffffffffffffffffffffffffffffffffffffffffffff0483118215151615620001b757620001b662000200565b5b828202905092915050565b6000620001cf82620001d6565b9050919050565b600073ffffffffffffffffffffffffffffffffffffffff82169050919050565b6000819050919050565b7f4e487b7100000000000000000000000000000000000000000000000000000000600052601160045260246000fd5b6200023a81620001c2565b81146200024657600080fd5b50565b6200025481620001f6565b81146200026057600080fd5b50565b6109de80620002736000396000f3fe608060405234801561001057600080fd5b506004361061007d5760003560e01c806349df728c1161005b57806349df728c146100cc57806369ac5721146100e85780638da5cb5b14610106578063cf09e0d0146101245761007d565b806302d05d3f14610082578063370158ea146100a05780633ccfd60b146100c2575b600080fd5b61008a610142565b60405161009791906106bd565b60405180910390f35b6100a8610166565b6040516100b995949392919061070f565b60405180910390f35b6100ca6101cb565b005b6100e660048036038101906100e191906105bb565b6102e7565b005b6100f061054a565b6040516100fd91906107eb565b60405180910390f35b61010e610550565b60405161011b91906106bd565b60405180910390f35b61012c610576565b60405161013991906107eb565b60405180910390f35b60008054906101000a900473ffffffffffffffffffffffffffffffffffffffff1681565b60008060008060008060009054906101000a900473ffffffffffffffffffffffffffffffffffffffff16600160009054906101000a900473ffffffffffffffffffffffffffffffffffffffff1660025460035447945094509450945094509091929394565b600160009054906101000a900473ffffffffffffffffffffffffffffffffffffffff1673ffffffffffffffffffffffffffffffffffffffff163373ffffffffffffffffffffffffffffffffffffffff161461025b576040517f08c379a0000000000000000000000000000000000000000000000000000000008152600401610252906107ab565b60405180910390fd5b600254600f4361026b9190610817565b10156102ac576040517f08c379a00000000000000000000000000000000000000000000000000000000081526004016102a39061078b565b60405180910390fd5b7fb244b9a17ad633c6e83b7983ee04320484956a68ddbe96a0b70dfca1cf19d72333476040516102dd929190610762565b60405180910390a1565b600160009054906101000a900473ffffffffffffffffffffffffffffffffffffffff1673ffffffffffffffffffffffffffffffffffffffff163373ffffffffffffffffffffffffffffffffffffffff1614610377576040517f08c379a000000000000000000000000000000000000000000000000000000000815260040161036e906107ab565b60405180910390fd5b600254600f436103879190610817565b10156103c8576040517f08c379a00000000000000000000000000000000000000000000000000000000081526004016103bf906107cb565b60405180910390fd5b600081905060008173ffffffffffffffffffffffffffffffffffffffff166370a08231306040518263ffffffff1660e01b815260040161040891906106bd565b60206040518083038186803b15801561042057600080fd5b505afa158015610434573d6000803e3d6000fd5b505050506040513d601f19601f82011682018060405250810190610458919061060d565b90508173ffffffffffffffffffffffffffffffffffffffff1663a9059cbb600160009054906101000a900473ffffffffffffffffffffffffffffffffffffffff16836040518363ffffffff1660e01b81526004016104b7929190610762565b602060405180830381600087803b1580156104d157600080fd5b505af11580156104e5573d6000803e3d6000fd5b505050506040513d601f19601f8201168201806040525081019061050991906105e4565b507fa04c965e7d289704527a948915777d68bb4530fb4b08aa935fb958c0b7901ab983338360405161053d939291906106d8565b60405180910390a1505050565b60025481565b600160009054906101000a900473ffffffffffffffffffffffffffffffffffffffff1681565b60035481565b60008135905061058b81610963565b92915050565b6000815190506105a08161097a565b92915050565b6000815190506105b581610991565b92915050565b6000602082840312156105cd57600080fd5b60006105db8482850161057c565b91505092915050565b6000602082840312156105f657600080fd5b600061060484828501610591565b91505092915050565b60006020828403121561061f57600080fd5b600061062d848285016105a6565b91505092915050565b61063f81610871565b82525050565b6000610652600c83610806565b915061065d826108e8565b602082019050919050565b6000610675601383610806565b915061068082610911565b602082019050919050565b6000610698600c83610806565b91506106a38261093a565b602082019050919050565b6106b7816108af565b82525050565b60006020820190506106d26000830184610636565b92915050565b60006060820190506106ed6000830186610636565b6106fa6020830185610636565b61070760408301846106ae565b949350505050565b600060a0820190506107246000830188610636565b6107316020830187610636565b61073e60408301866106ae565b61074b60608301856106ae565b61075860808301846106ae565b9695505050505050565b60006040820190506107776000830185610636565b61078460208301846106ae565b9392505050565b600060208201905081810360008301526107a481610645565b9050919050565b600060208201905081810360008301526107c481610668565b9050919050565b600060208201905081810360008301526107e48161068b565b9050919050565b600060208201905061080060008301846106ae565b92915050565b600082825260208201905092915050565b6000610822826108af565b915061082d836108af565b9250817fffffffffffffffffffffffffffffffffffffffffffffffffffffffffffffffff0483118215151615610866576108656108b9565b5b828202905092915050565b600061087c8261088f565b9050919050565b60008115159050919050565b600073ffffffffffffffffffffffffffffffffffffffff82169050919050565b6000819050919050565b7f4e487b7100000000000000000000000000000000000000000000000000000000600052601160045260246000fd5b7f4e6f7420706f737369626c650000000000000000000000000000000000000000600082015250565b7f726567697374657220666f722077616c6c657400000000000000000000000000600082015250565b7f696e76616c69642074696d650000000000000000000000000000000000000000600082015250565b61096c81610871565b811461097757600080fd5b50565b61098381610883565b811461098e57600080fd5b50565b61099a816108af565b81146109a557600080fd5b5056fea2646970667358221220b39dd0207e8324ad9e66f238d092c4e7e198590008bab12a25bfc8ec9a1bf11064736f6c63430008040033",
          "opcodes": "PUSH1 0x80 PUSH1 0x40 MSTORE CALLVALUE DUP1 ISZERO PUSH3 0x11 JUMPI PUSH1 0x0 DUP1 REVERT JUMPDEST POP PUSH1 0x40 MLOAD PUSH3 0xC51 CODESIZE SUB DUP1 PUSH3 0xC51 DUP4 CODECOPY DUP2 DUP2 ADD PUSH1 0x40 MSTORE DUP2 ADD SWAP1 PUSH3 0x37 SWAP2 SWAP1 PUSH3 0x10B JUMP JUMPDEST DUP3 PUSH1 0x0 DUP1 PUSH2 0x100 EXP DUP2 SLOAD DUP2 PUSH20 0xFFFFFFFFFFFFFFFFFFFFFFFFFFFFFFFFFFFFFFFF MUL NOT AND SWAP1 DUP4 PUSH20 0xFFFFFFFFFFFFFFFFFFFFFFFFFFFFFFFFFFFFFFFF AND MUL OR SWAP1 SSTORE POP DUP2 PUSH1 0x1 PUSH1 0x0 PUSH2 0x100 EXP DUP2 SLOAD DUP2 PUSH20 0xFFFFFFFFFFFFFFFFFFFFFFFFFFFFFFFFFFFFFFFF MUL NOT AND SWAP1 DUP4 PUSH20 0xFFFFFFFFFFFFFFFFFFFFFFFFFFFFFFFFFFFFFFFF AND MUL OR SWAP1 SSTORE POP DUP1 PUSH1 0x2 DUP2 SWAP1 SSTORE POP PUSH1 0xF NUMBER PUSH3 0xCE SWAP2 SWAP1 PUSH3 0x161 JUMP JUMPDEST PUSH1 0x3 DUP2 SWAP1 SSTORE POP POP POP POP PUSH3 0x263 JUMP JUMPDEST PUSH1 0x0 DUP2 MLOAD SWAP1 POP PUSH3 0xEE DUP2 PUSH3 0x22F JUMP JUMPDEST SWAP3 SWAP2 POP POP JUMP JUMPDEST PUSH1 0x0 DUP2 MLOAD SWAP1 POP PUSH3 0x105 DUP2 PUSH3 0x249 JUMP JUMPDEST SWAP3 SWAP2 POP POP JUMP JUMPDEST PUSH1 0x0 DUP1 PUSH1 0x0 PUSH1 0x60 DUP5 DUP7 SUB SLT ISZERO PUSH3 0x121 JUMPI PUSH1 0x0 DUP1 REVERT JUMPDEST PUSH1 0x0 PUSH3 0x131 DUP7 DUP3 DUP8 ADD PUSH3 0xDD JUMP JUMPDEST SWAP4 POP POP PUSH1 0x20 PUSH3 0x144 DUP7 DUP3 DUP8 ADD PUSH3 0xDD JUMP JUMPDEST SWAP3 POP POP PUSH1 0x40 PUSH3 0x157 DUP7 DUP3 DUP8 ADD PUSH3 0xF4 JUMP JUMPDEST SWAP2 POP POP SWAP3 POP SWAP3 POP SWAP3 JUMP JUMPDEST PUSH1 0x0 PUSH3 0x16E DUP3 PUSH3 0x1F6 JUMP JUMPDEST SWAP2 POP PUSH3 0x17B DUP4 PUSH3 0x1F6 JUMP JUMPDEST SWAP3 POP DUP2 PUSH32 0xFFFFFFFFFFFFFFFFFFFFFFFFFFFFFFFFFFFFFFFFFFFFFFFFFFFFFFFFFFFFFFFF DIV DUP4 GT DUP3 ISZERO ISZERO AND ISZERO PUSH3 0x1B7 JUMPI PUSH3 0x1B6 PUSH3 0x200 JUMP JUMPDEST JUMPDEST DUP3 DUP3 MUL SWAP1 POP SWAP3 SWAP2 POP POP JUMP JUMPDEST PUSH1 0x0 PUSH3 0x1CF DUP3 PUSH3 0x1D6 JUMP JUMPDEST SWAP1 POP SWAP2 SWAP1 POP JUMP JUMPDEST PUSH1 0x0 PUSH20 0xFFFFFFFFFFFFFFFFFFFFFFFFFFFFFFFFFFFFFFFF DUP3 AND SWAP1 POP SWAP2 SWAP1 POP JUMP JUMPDEST PUSH1 0x0 DUP2 SWAP1 POP SWAP2 SWAP1 POP JUMP JUMPDEST PUSH32 0x4E487B7100000000000000000000000000000000000000000000000000000000 PUSH1 0x0 MSTORE PUSH1 0x11 PUSH1 0x4 MSTORE PUSH1 0x24 PUSH1 0x0 REVERT JUMPDEST PUSH3 0x23A DUP2 PUSH3 0x1C2 JUMP JUMPDEST DUP2 EQ PUSH3 0x246 JUMPI PUSH1 0x0 DUP1 REVERT JUMPDEST POP JUMP JUMPDEST PUSH3 0x254 DUP2 PUSH3 0x1F6 JUMP JUMPDEST DUP2 EQ PUSH3 0x260 JUMPI PUSH1 0x0 DUP1 REVERT JUMPDEST POP JUMP JUMPDEST PUSH2 0x9DE DUP1 PUSH3 0x273 PUSH1 0x0 CODECOPY PUSH1 0x0 RETURN INVALID PUSH1 0x80 PUSH1 0x40 MSTORE CALLVALUE DUP1 ISZERO PUSH2 0x10 JUMPI PUSH1 0x0 DUP1 REVERT JUMPDEST POP PUSH1 0x4 CALLDATASIZE LT PUSH2 0x7D JUMPI PUSH1 0x0 CALLDATALOAD PUSH1 0xE0 SHR DUP1 PUSH4 0x49DF728C GT PUSH2 0x5B JUMPI DUP1 PUSH4 0x49DF728C EQ PUSH2 0xCC JUMPI DUP1 PUSH4 0x69AC5721 EQ PUSH2 0xE8 JUMPI DUP1 PUSH4 0x8DA5CB5B EQ PUSH2 0x106 JUMPI DUP1 PUSH4 0xCF09E0D0 EQ PUSH2 0x124 JUMPI PUSH2 0x7D JUMP JUMPDEST DUP1 PUSH4 0x2D05D3F EQ PUSH2 0x82 JUMPI DUP1 PUSH4 0x370158EA EQ PUSH2 0xA0 JUMPI DUP1 PUSH4 0x3CCFD60B EQ PUSH2 0xC2 JUMPI JUMPDEST PUSH1 0x0 DUP1 REVERT JUMPDEST PUSH2 0x8A PUSH2 0x142 JUMP JUMPDEST PUSH1 0x40 MLOAD PUSH2 0x97 SWAP2 SWAP1 PUSH2 0x6BD JUMP JUMPDEST PUSH1 0x40 MLOAD DUP1 SWAP2 SUB SWAP1 RETURN JUMPDEST PUSH2 0xA8 PUSH2 0x166 JUMP JUMPDEST PUSH1 0x40 MLOAD PUSH2 0xB9 SWAP6 SWAP5 SWAP4 SWAP3 SWAP2 SWAP1 PUSH2 0x70F JUMP JUMPDEST PUSH1 0x40 MLOAD DUP1 SWAP2 SUB SWAP1 RETURN JUMPDEST PUSH2 0xCA PUSH2 0x1CB JUMP JUMPDEST STOP JUMPDEST PUSH2 0xE6 PUSH1 0x4 DUP1 CALLDATASIZE SUB DUP2 ADD SWAP1 PUSH2 0xE1 SWAP2 SWAP1 PUSH2 0x5BB JUMP JUMPDEST PUSH2 0x2E7 JUMP JUMPDEST STOP JUMPDEST PUSH2 0xF0 PUSH2 0x54A JUMP JUMPDEST PUSH1 0x40 MLOAD PUSH2 0xFD SWAP2 SWAP1 PUSH2 0x7EB JUMP JUMPDEST PUSH1 0x40 MLOAD DUP1 SWAP2 SUB SWAP1 RETURN JUMPDEST PUSH2 0x10E PUSH2 0x550 JUMP JUMPDEST PUSH1 0x40 MLOAD PUSH2 0x11B SWAP2 SWAP1 PUSH2 0x6BD JUMP JUMPDEST PUSH1 0x40 MLOAD DUP1 SWAP2 SUB SWAP1 RETURN JUMPDEST PUSH2 0x12C PUSH2 0x576 JUMP JUMPDEST PUSH1 0x40 MLOAD PUSH2 0x139 SWAP2 SWAP1 PUSH2 0x7EB JUMP JUMPDEST PUSH1 0x40 MLOAD DUP1 SWAP2 SUB SWAP1 RETURN JUMPDEST PUSH1 0x0 DUP1 SLOAD SWAP1 PUSH2 0x100 EXP SWAP1 DIV PUSH20 0xFFFFFFFFFFFFFFFFFFFFFFFFFFFFFFFFFFFFFFFF AND DUP2 JUMP JUMPDEST PUSH1 0x0 DUP1 PUSH1 0x0 DUP1 PUSH1 0x0 DUP1 PUSH1 0x0 SWAP1 SLOAD SWAP1 PUSH2 0x100 EXP SWAP1 DIV PUSH20 0xFFFFFFFFFFFFFFFFFFFFFFFFFFFFFFFFFFFFFFFF AND PUSH1 0x1 PUSH1 0x0 SWAP1 SLOAD SWAP1 PUSH2 0x100 EXP SWAP1 DIV PUSH20 0xFFFFFFFFFFFFFFFFFFFFFFFFFFFFFFFFFFFFFFFF AND PUSH1 0x2 SLOAD PUSH1 0x3 SLOAD SELFBALANCE SWAP5 POP SWAP5 POP SWAP5 POP SWAP5 POP SWAP5 POP SWAP1 SWAP2 SWAP3 SWAP4 SWAP5 JUMP JUMPDEST PUSH1 0x1 PUSH1 0x0 SWAP1 SLOAD SWAP1 PUSH2 0x100 EXP SWAP1 DIV PUSH20 0xFFFFFFFFFFFFFFFFFFFFFFFFFFFFFFFFFFFFFFFF AND PUSH20 0xFFFFFFFFFFFFFFFFFFFFFFFFFFFFFFFFFFFFFFFF AND CALLER PUSH20 0xFFFFFFFFFFFFFFFFFFFFFFFFFFFFFFFFFFFFFFFF AND EQ PUSH2 0x25B JUMPI PUSH1 0x40 MLOAD PUSH32 0x8C379A000000000000000000000000000000000000000000000000000000000 DUP2 MSTORE PUSH1 0x4 ADD PUSH2 0x252 SWAP1 PUSH2 0x7AB JUMP JUMPDEST PUSH1 0x40 MLOAD DUP1 SWAP2 SUB SWAP1 REVERT JUMPDEST PUSH1 0x2 SLOAD PUSH1 0xF NUMBER PUSH2 0x26B SWAP2 SWAP1 PUSH2 0x817 JUMP JUMPDEST LT ISZERO PUSH2 0x2AC JUMPI PUSH1 0x40 MLOAD PUSH32 0x8C379A000000000000000000000000000000000000000000000000000000000 DUP2 MSTORE PUSH1 0x4 ADD PUSH2 0x2A3 SWAP1 PUSH2 0x78B JUMP JUMPDEST PUSH1 0x40 MLOAD DUP1 SWAP2 SUB SWAP1 REVERT JUMPDEST PUSH32 0xB244B9A17AD633C6E83B7983EE04320484956A68DDBE96A0B70DFCA1CF19D723 CALLER SELFBALANCE PUSH1 0x40 MLOAD PUSH2 0x2DD SWAP3 SWAP2 SWAP1 PUSH2 0x762 JUMP JUMPDEST PUSH1 0x40 MLOAD DUP1 SWAP2 SUB SWAP1 LOG1 JUMP JUMPDEST PUSH1 0x1 PUSH1 0x0 SWAP1 SLOAD SWAP1 PUSH2 0x100 EXP SWAP1 DIV PUSH20 0xFFFFFFFFFFFFFFFFFFFFFFFFFFFFFFFFFFFFFFFF AND PUSH20 0xFFFFFFFFFFFFFFFFFFFFFFFFFFFFFFFFFFFFFFFF AND CALLER PUSH20 0xFFFFFFFFFFFFFFFFFFFFFFFFFFFFFFFFFFFFFFFF AND EQ PUSH2 0x377 JUMPI PUSH1 0x40 MLOAD PUSH32 0x8C379A000000000000000000000000000000000000000000000000000000000 DUP2 MSTORE PUSH1 0x4 ADD PUSH2 0x36E SWAP1 PUSH2 0x7AB JUMP JUMPDEST PUSH1 0x40 MLOAD DUP1 SWAP2 SUB SWAP1 REVERT JUMPDEST PUSH1 0x2 SLOAD PUSH1 0xF NUMBER PUSH2 0x387 SWAP2 SWAP1 PUSH2 0x817 JUMP JUMPDEST LT ISZERO PUSH2 0x3C8 JUMPI PUSH1 0x40 MLOAD PUSH32 0x8C379A000000000000000000000000000000000000000000000000000000000 DUP2 MSTORE PUSH1 0x4 ADD PUSH2 0x3BF SWAP1 PUSH2 0x7CB JUMP JUMPDEST PUSH1 0x40 MLOAD DUP1 SWAP2 SUB SWAP1 REVERT JUMPDEST PUSH1 0x0 DUP2 SWAP1 POP PUSH1 0x0 DUP2 PUSH20 0xFFFFFFFFFFFFFFFFFFFFFFFFFFFFFFFFFFFFFFFF AND PUSH4 0x70A08231 ADDRESS PUSH1 0x40 MLOAD DUP3 PUSH4 0xFFFFFFFF AND PUSH1 0xE0 SHL DUP2 MSTORE PUSH1 0x4 ADD PUSH2 0x408 SWAP2 SWAP1 PUSH2 0x6BD JUMP JUMPDEST PUSH1 0x20 PUSH1 0x40 MLOAD DUP1 DUP4 SUB DUP2 DUP7 DUP1 EXTCODESIZE ISZERO DUP1 ISZERO PUSH2 0x420 JUMPI PUSH1 0x0 DUP1 REVERT JUMPDEST POP GAS STATICCALL ISZERO DUP1 ISZERO PUSH2 0x434 JUMPI RETURNDATASIZE PUSH1 0x0 DUP1 RETURNDATACOPY RETURNDATASIZE PUSH1 0x0 REVERT JUMPDEST POP POP POP POP PUSH1 0x40 MLOAD RETURNDATASIZE PUSH1 0x1F NOT PUSH1 0x1F DUP3 ADD AND DUP3 ADD DUP1 PUSH1 0x40 MSTORE POP DUP2 ADD SWAP1 PUSH2 0x458 SWAP2 SWAP1 PUSH2 0x60D JUMP JUMPDEST SWAP1 POP DUP2 PUSH20 0xFFFFFFFFFFFFFFFFFFFFFFFFFFFFFFFFFFFFFFFF AND PUSH4 0xA9059CBB PUSH1 0x1 PUSH1 0x0 SWAP1 SLOAD SWAP1 PUSH2 0x100 EXP SWAP1 DIV PUSH20 0xFFFFFFFFFFFFFFFFFFFFFFFFFFFFFFFFFFFFFFFF AND DUP4 PUSH1 0x40 MLOAD DUP4 PUSH4 0xFFFFFFFF AND PUSH1 0xE0 SHL DUP2 MSTORE PUSH1 0x4 ADD PUSH2 0x4B7 SWAP3 SWAP2 SWAP1 PUSH2 0x762 JUMP JUMPDEST PUSH1 0x20 PUSH1 0x40 MLOAD DUP1 DUP4 SUB DUP2 PUSH1 0x0 DUP8 DUP1 EXTCODESIZE ISZERO DUP1 ISZERO PUSH2 0x4D1 JUMPI PUSH1 0x0 DUP1 REVERT JUMPDEST POP GAS CALL ISZERO DUP1 ISZERO PUSH2 0x4E5 JUMPI RETURNDATASIZE PUSH1 0x0 DUP1 RETURNDATACOPY RETURNDATASIZE PUSH1 0x0 REVERT JUMPDEST POP POP POP POP PUSH1 0x40 MLOAD RETURNDATASIZE PUSH1 0x1F NOT PUSH1 0x1F DUP3 ADD AND DUP3 ADD DUP1 PUSH1 0x40 MSTORE POP DUP2 ADD SWAP1 PUSH2 0x509 SWAP2 SWAP1 PUSH2 0x5E4 JUMP JUMPDEST POP PUSH32 0xA04C965E7D289704527A948915777D68BB4530FB4B08AA935FB958C0B7901AB9 DUP4 CALLER DUP4 PUSH1 0x40 MLOAD PUSH2 0x53D SWAP4 SWAP3 SWAP2 SWAP1 PUSH2 0x6D8 JUMP JUMPDEST PUSH1 0x40 MLOAD DUP1 SWAP2 SUB SWAP1 LOG1 POP POP POP JUMP JUMPDEST PUSH1 0x2 SLOAD DUP2 JUMP JUMPDEST PUSH1 0x1 PUSH1 0x0 SWAP1 SLOAD SWAP1 PUSH2 0x100 EXP SWAP1 DIV PUSH20 0xFFFFFFFFFFFFFFFFFFFFFFFFFFFFFFFFFFFFFFFF AND DUP2 JUMP JUMPDEST PUSH1 0x3 SLOAD DUP2 JUMP JUMPDEST PUSH1 0x0 DUP2 CALLDATALOAD SWAP1 POP PUSH2 0x58B DUP2 PUSH2 0x963 JUMP JUMPDEST SWAP3 SWAP2 POP POP JUMP JUMPDEST PUSH1 0x0 DUP2 MLOAD SWAP1 POP PUSH2 0x5A0 DUP2 PUSH2 0x97A JUMP JUMPDEST SWAP3 SWAP2 POP POP JUMP JUMPDEST PUSH1 0x0 DUP2 MLOAD SWAP1 POP PUSH2 0x5B5 DUP2 PUSH2 0x991 JUMP JUMPDEST SWAP3 SWAP2 POP POP JUMP JUMPDEST PUSH1 0x0 PUSH1 0x20 DUP3 DUP5 SUB SLT ISZERO PUSH2 0x5CD JUMPI PUSH1 0x0 DUP1 REVERT JUMPDEST PUSH1 0x0 PUSH2 0x5DB DUP5 DUP3 DUP6 ADD PUSH2 0x57C JUMP JUMPDEST SWAP2 POP POP SWAP3 SWAP2 POP POP JUMP JUMPDEST PUSH1 0x0 PUSH1 0x20 DUP3 DUP5 SUB SLT ISZERO PUSH2 0x5F6 JUMPI PUSH1 0x0 DUP1 REVERT JUMPDEST PUSH1 0x0 PUSH2 0x604 DUP5 DUP3 DUP6 ADD PUSH2 0x591 JUMP JUMPDEST SWAP2 POP POP SWAP3 SWAP2 POP POP JUMP JUMPDEST PUSH1 0x0 PUSH1 0x20 DUP3 DUP5 SUB SLT ISZERO PUSH2 0x61F JUMPI PUSH1 0x0 DUP1 REVERT JUMPDEST PUSH1 0x0 PUSH2 0x62D DUP5 DUP3 DUP6 ADD PUSH2 0x5A6 JUMP JUMPDEST SWAP2 POP POP SWAP3 SWAP2 POP POP JUMP JUMPDEST PUSH2 0x63F DUP2 PUSH2 0x871 JUMP JUMPDEST DUP3 MSTORE POP POP JUMP JUMPDEST PUSH1 0x0 PUSH2 0x652 PUSH1 0xC DUP4 PUSH2 0x806 JUMP JUMPDEST SWAP2 POP PUSH2 0x65D DUP3 PUSH2 0x8E8 JUMP JUMPDEST PUSH1 0x20 DUP3 ADD SWAP1 POP SWAP2 SWAP1 POP JUMP JUMPDEST PUSH1 0x0 PUSH2 0x675 PUSH1 0x13 DUP4 PUSH2 0x806 JUMP JUMPDEST SWAP2 POP PUSH2 0x680 DUP3 PUSH2 0x911 JUMP JUMPDEST PUSH1 0x20 DUP3 ADD SWAP1 POP SWAP2 SWAP1 POP JUMP JUMPDEST PUSH1 0x0 PUSH2 0x698 PUSH1 0xC DUP4 PUSH2 0x806 JUMP JUMPDEST SWAP2 POP PUSH2 0x6A3 DUP3 PUSH2 0x93A JUMP JUMPDEST PUSH1 0x20 DUP3 ADD SWAP1 POP SWAP2 SWAP1 POP JUMP JUMPDEST PUSH2 0x6B7 DUP2 PUSH2 0x8AF JUMP JUMPDEST DUP3 MSTORE POP POP JUMP JUMPDEST PUSH1 0x0 PUSH1 0x20 DUP3 ADD SWAP1 POP PUSH2 0x6D2 PUSH1 0x0 DUP4 ADD DUP5 PUSH2 0x636 JUMP JUMPDEST SWAP3 SWAP2 POP POP JUMP JUMPDEST PUSH1 0x0 PUSH1 0x60 DUP3 ADD SWAP1 POP PUSH2 0x6ED PUSH1 0x0 DUP4 ADD DUP7 PUSH2 0x636 JUMP JUMPDEST PUSH2 0x6FA PUSH1 0x20 DUP4 ADD DUP6 PUSH2 0x636 JUMP JUMPDEST PUSH2 0x707 PUSH1 0x40 DUP4 ADD DUP5 PUSH2 0x6AE JUMP JUMPDEST SWAP5 SWAP4 POP POP POP POP JUMP JUMPDEST PUSH1 0x0 PUSH1 0xA0 DUP3 ADD SWAP1 POP PUSH2 0x724 PUSH1 0x0 DUP4 ADD DUP9 PUSH2 0x636 JUMP JUMPDEST PUSH2 0x731 PUSH1 0x20 DUP4 ADD DUP8 PUSH2 0x636 JUMP JUMPDEST PUSH2 0x73E PUSH1 0x40 DUP4 ADD DUP7 PUSH2 0x6AE JUMP JUMPDEST PUSH2 0x74B PUSH1 0x60 DUP4 ADD DUP6 PUSH2 0x6AE JUMP JUMPDEST PUSH2 0x758 PUSH1 0x80 DUP4 ADD DUP5 PUSH2 0x6AE JUMP JUMPDEST SWAP7 SWAP6 POP POP POP POP POP POP JUMP JUMPDEST PUSH1 0x0 PUSH1 0x40 DUP3 ADD SWAP1 POP PUSH2 0x777 PUSH1 0x0 DUP4 ADD DUP6 PUSH2 0x636 JUMP JUMPDEST PUSH2 0x784 PUSH1 0x20 DUP4 ADD DUP5 PUSH2 0x6AE JUMP JUMPDEST SWAP4 SWAP3 POP POP POP JUMP JUMPDEST PUSH1 0x0 PUSH1 0x20 DUP3 ADD SWAP1 POP DUP2 DUP2 SUB PUSH1 0x0 DUP4 ADD MSTORE PUSH2 0x7A4 DUP2 PUSH2 0x645 JUMP JUMPDEST SWAP1 POP SWAP2 SWAP1 POP JUMP JUMPDEST PUSH1 0x0 PUSH1 0x20 DUP3 ADD SWAP1 POP DUP2 DUP2 SUB PUSH1 0x0 DUP4 ADD MSTORE PUSH2 0x7C4 DUP2 PUSH2 0x668 JUMP JUMPDEST SWAP1 POP SWAP2 SWAP1 POP JUMP JUMPDEST PUSH1 0x0 PUSH1 0x20 DUP3 ADD SWAP1 POP DUP2 DUP2 SUB PUSH1 0x0 DUP4 ADD MSTORE PUSH2 0x7E4 DUP2 PUSH2 0x68B JUMP JUMPDEST SWAP1 POP SWAP2 SWAP1 POP JUMP JUMPDEST PUSH1 0x0 PUSH1 0x20 DUP3 ADD SWAP1 POP PUSH2 0x800 PUSH1 0x0 DUP4 ADD DUP5 PUSH2 0x6AE JUMP JUMPDEST SWAP3 SWAP2 POP POP JUMP JUMPDEST PUSH1 0x0 DUP3 DUP3 MSTORE PUSH1 0x20 DUP3 ADD SWAP1 POP SWAP3 SWAP2 POP POP JUMP JUMPDEST PUSH1 0x0 PUSH2 0x822 DUP3 PUSH2 0x8AF JUMP JUMPDEST SWAP2 POP PUSH2 0x82D DUP4 PUSH2 0x8AF JUMP JUMPDEST SWAP3 POP DUP2 PUSH32 0xFFFFFFFFFFFFFFFFFFFFFFFFFFFFFFFFFFFFFFFFFFFFFFFFFFFFFFFFFFFFFFFF DIV DUP4 GT DUP3 ISZERO ISZERO AND ISZERO PUSH2 0x866 JUMPI PUSH2 0x865 PUSH2 0x8B9 JUMP JUMPDEST JUMPDEST DUP3 DUP3 MUL SWAP1 POP SWAP3 SWAP2 POP POP JUMP JUMPDEST PUSH1 0x0 PUSH2 0x87C DUP3 PUSH2 0x88F JUMP JUMPDEST SWAP1 POP SWAP2 SWAP1 POP JUMP JUMPDEST PUSH1 0x0 DUP2 ISZERO ISZERO SWAP1 POP SWAP2 SWAP1 POP JUMP JUMPDEST PUSH1 0x0 PUSH20 0xFFFFFFFFFFFFFFFFFFFFFFFFFFFFFFFFFFFFFFFF DUP3 AND SWAP1 POP SWAP2 SWAP1 POP JUMP JUMPDEST PUSH1 0x0 DUP2 SWAP1 POP SWAP2 SWAP1 POP JUMP JUMPDEST PUSH32 0x4E487B7100000000000000000000000000000000000000000000000000000000 PUSH1 0x0 MSTORE PUSH1 0x11 PUSH1 0x4 MSTORE PUSH1 0x24 PUSH1 0x0 REVERT JUMPDEST PUSH32 0x4E6F7420706F737369626C650000000000000000000000000000000000000000 PUSH1 0x0 DUP3 ADD MSTORE POP JUMP JUMPDEST PUSH32 0x726567697374657220666F722077616C6C657400000000000000000000000000 PUSH1 0x0 DUP3 ADD MSTORE POP JUMP JUMPDEST PUSH32 0x696E76616C69642074696D650000000000000000000000000000000000000000 PUSH1 0x0 DUP3 ADD MSTORE POP JUMP JUMPDEST PUSH2 0x96C DUP2 PUSH2 0x871 JUMP JUMPDEST DUP2 EQ PUSH2 0x977 JUMPI PUSH1 0x0 DUP1 REVERT JUMPDEST POP JUMP JUMPDEST PUSH2 0x983 DUP2 PUSH2 0x883 JUMP JUMPDEST DUP2 EQ PUSH2 0x98E JUMPI PUSH1 0x0 DUP1 REVERT JUMPDEST POP JUMP JUMPDEST PUSH2 0x99A DUP2 PUSH2 0x8AF JUMP JUMPDEST DUP2 EQ PUSH2 0x9A5 JUMPI PUSH1 0x0 DUP1 REVERT JUMPDEST POP JUMP INVALID LOG2 PUSH5 0x6970667358 0x22 SLT KECCAK256 0xB3 SWAP14 0xD0 KECCAK256 PUSH31 0x8324AD9E66F238D092C4E7E198590008BAB12A25BFC8EC9A1BF11064736F6C PUSH4 0x43000804 STOP CALLER "
        },
        "methodIdentifiers": {
          "createdAt()": "cf09e0d0",
          "creator()": "02d05d3f",
          "info()": "370158ea",
          "owner()": "8da5cb5b",
          "unlockDate()": "69ac5721",
          "withdraw()": "3ccfd60b",
          "withdrawTokens(address)": "49df728c"
        }
      }
    }
  }
}