{
  "_format": "hh-sol-artifact-1",
  "contractName": "TimeLockedWallet",
  "sourceName": "contracts/TimeLockedWallet.sol",
  "abi": [
    {
      "inputs": [
        {
          "internalType": "address",
          "name": "_creator",
          "type": "address"
        },
        {
          "internalType": "address",
          "name": "_owner",
          "type": "address"
        },
        {
          "internalType": "uint256",
          "name": "_unlockDate",
          "type": "uint256"
        }
      ],
      "stateMutability": "nonpayable",
      "type": "constructor"
    },
    {
      "anonymous": false,
      "inputs": [
        {
          "indexed": false,
          "internalType": "address",
          "name": "from",
          "type": "address"
        },
        {
          "indexed": false,
          "internalType": "uint256",
          "name": "amount",
          "type": "uint256"
        }
      ],
      "name": "Received",
      "type": "event"
    },
    {
      "anonymous": false,
      "inputs": [
        {
          "indexed": false,
          "internalType": "address",
          "name": "to",
          "type": "address"
        },
        {
          "indexed": false,
          "internalType": "uint256",
          "name": "amount",
          "type": "uint256"
        }
      ],
      "name": "Withdrew",
      "type": "event"
    },
    {
      "anonymous": false,
      "inputs": [
        {
          "indexed": false,
          "internalType": "address",
          "name": "tokenContract",
          "type": "address"
        },
        {
          "indexed": false,
          "internalType": "address",
          "name": "to",
          "type": "address"
        },
        {
          "indexed": false,
          "internalType": "uint256",
          "name": "amount",
          "type": "uint256"
        }
      ],
      "name": "WithdrewTokens",
      "type": "event"
    },
    {
      "inputs": [],
      "name": "createdAt",
      "outputs": [
        {
          "internalType": "uint256",
          "name": "",
          "type": "uint256"
        }
      ],
      "stateMutability": "view",
      "type": "function"
    },
    {
      "inputs": [],
      "name": "creator",
      "outputs": [
        {
          "internalType": "address",
          "name": "",
          "type": "address"
        }
      ],
      "stateMutability": "view",
      "type": "function"
    },
    {
      "inputs": [],
      "name": "info",
      "outputs": [
        {
          "internalType": "address",
          "name": "",
          "type": "address"
        },
        {
          "internalType": "address",
          "name": "",
          "type": "address"
        },
        {
          "internalType": "uint256",
          "name": "",
          "type": "uint256"
        },
        {
          "internalType": "uint256",
          "name": "",
          "type": "uint256"
        },
        {
          "internalType": "uint256",
          "name": "",
          "type": "uint256"
        }
      ],
      "stateMutability": "view",
      "type": "function"
    },
    {
      "inputs": [],
      "name": "owner",
      "outputs": [
        {
          "internalType": "address",
          "name": "",
          "type": "address"
        }
      ],
      "stateMutability": "view",
      "type": "function"
    },
    {
      "inputs": [],
      "name": "unlockDate",
      "outputs": [
        {
          "internalType": "uint256",
          "name": "",
          "type": "uint256"
        }
      ],
      "stateMutability": "view",
      "type": "function"
    },
    {
      "inputs": [],
      "name": "withdraw",
      "outputs": [],
      "stateMutability": "nonpayable",
      "type": "function"
    },
    {
      "inputs": [
        {
          "internalType": "address",
          "name": "_tokenContract",
          "type": "address"
        }
      ],
      "name": "withdrawTokens",
      "outputs": [],
      "stateMutability": "nonpayable",
      "type": "function"
    }
  ],
  "bytecode": "0x60806040523480156200001157600080fd5b5060405162000c5138038062000c5183398181016040528101906200003791906200010b565b826000806101000a81548173ffffffffffffffffffffffffffffffffffffffff021916908373ffffffffffffffffffffffffffffffffffffffff16021790555081600160006101000a81548173ffffffffffffffffffffffffffffffffffffffff021916908373ffffffffffffffffffffffffffffffffffffffff16021790555080600281905550600f43620000ce919062000161565b60038190555050505062000263565b600081519050620000ee816200022f565b92915050565b600081519050620001058162000249565b92915050565b6000806000606084860312156200012157600080fd5b60006200013186828701620000dd565b93505060206200014486828701620000dd565b92505060406200015786828701620000f4565b9150509250925092565b60006200016e82620001f6565b91506200017b83620001f6565b9250817fffffffffffffffffffffffffffffffffffffffffffffffffffffffffffffffff0483118215151615620001b757620001b662000200565b5b828202905092915050565b6000620001cf82620001d6565b9050919050565b600073ffffffffffffffffffffffffffffffffffffffff82169050919050565b6000819050919050565b7f4e487b7100000000000000000000000000000000000000000000000000000000600052601160045260246000fd5b6200023a81620001c2565b81146200024657600080fd5b50565b6200025481620001f6565b81146200026057600080fd5b50565b6109de80620002736000396000f3fe608060405234801561001057600080fd5b506004361061007d5760003560e01c806349df728c1161005b57806349df728c146100cc57806369ac5721146100e85780638da5cb5b14610106578063cf09e0d0146101245761007d565b806302d05d3f14610082578063370158ea146100a05780633ccfd60b146100c2575b600080fd5b61008a610142565b60405161009791906106bd565b60405180910390f35b6100a8610166565b6040516100b995949392919061070f565b60405180910390f35b6100ca6101cb565b005b6100e660048036038101906100e191906105bb565b6102e7565b005b6100f061054a565b6040516100fd91906107eb565b60405180910390f35b61010e610550565b60405161011b91906106bd565b60405180910390f35b61012c610576565b60405161013991906107eb565b60405180910390f35b60008054906101000a900473ffffffffffffffffffffffffffffffffffffffff1681565b60008060008060008060009054906101000a900473ffffffffffffffffffffffffffffffffffffffff16600160009054906101000a900473ffffffffffffffffffffffffffffffffffffffff1660025460035447945094509450945094509091929394565b600160009054906101000a900473ffffffffffffffffffffffffffffffffffffffff1673ffffffffffffffffffffffffffffffffffffffff163373ffffffffffffffffffffffffffffffffffffffff161461025b576040517f08c379a0000000000000000000000000000000000000000000000000000000008152600401610252906107ab565b60405180910390fd5b600254600f4361026b9190610817565b10156102ac576040517f08c379a00000000000000000000000000000000000000000000000000000000081526004016102a39061078b565b60405180910390fd5b7fb244b9a17ad633c6e83b7983ee04320484956a68ddbe96a0b70dfca1cf19d72333476040516102dd929190610762565b60405180910390a1565b600160009054906101000a900473ffffffffffffffffffffffffffffffffffffffff1673ffffffffffffffffffffffffffffffffffffffff163373ffffffffffffffffffffffffffffffffffffffff1614610377576040517f08c379a000000000000000000000000000000000000000000000000000000000815260040161036e906107ab565b60405180910390fd5b600254600f436103879190610817565b10156103c8576040517f08c379a00000000000000000000000000000000000000000000000000000000081526004016103bf906107cb565b60405180910390fd5b600081905060008173ffffffffffffffffffffffffffffffffffffffff166370a08231306040518263ffffffff1660e01b815260040161040891906106bd565b60206040518083038186803b15801561042057600080fd5b505afa158015610434573d6000803e3d6000fd5b505050506040513d601f19601f82011682018060405250810190610458919061060d565b90508173ffffffffffffffffffffffffffffffffffffffff1663a9059cbb600160009054906101000a900473ffffffffffffffffffffffffffffffffffffffff16836040518363ffffffff1660e01b81526004016104b7929190610762565b602060405180830381600087803b1580156104d157600080fd5b505af11580156104e5573d6000803e3d6000fd5b505050506040513d601f19601f8201168201806040525081019061050991906105e4565b507fa04c965e7d289704527a948915777d68bb4530fb4b08aa935fb958c0b7901ab983338360405161053d939291906106d8565b60405180910390a1505050565b60025481565b600160009054906101000a900473ffffffffffffffffffffffffffffffffffffffff1681565b60035481565b60008135905061058b81610963565b92915050565b6000815190506105a08161097a565b92915050565b6000815190506105b581610991565b92915050565b6000602082840312156105cd57600080fd5b60006105db8482850161057c565b91505092915050565b6000602082840312156105f657600080fd5b600061060484828501610591565b91505092915050565b60006020828403121561061f57600080fd5b600061062d848285016105a6565b91505092915050565b61063f81610871565b82525050565b6000610652600c83610806565b915061065d826108e8565b602082019050919050565b6000610675601383610806565b915061068082610911565b602082019050919050565b6000610698600c83610806565b91506106a38261093a565b602082019050919050565b6106b7816108af565b82525050565b60006020820190506106d26000830184610636565b92915050565b60006060820190506106ed6000830186610636565b6106fa6020830185610636565b61070760408301846106ae565b949350505050565b600060a0820190506107246000830188610636565b6107316020830187610636565b61073e60408301866106ae565b61074b60608301856106ae565b61075860808301846106ae565b9695505050505050565b60006040820190506107776000830185610636565b61078460208301846106ae565b9392505050565b600060208201905081810360008301526107a481610645565b9050919050565b600060208201905081810360008301526107c481610668565b9050919050565b600060208201905081810360008301526107e48161068b565b9050919050565b600060208201905061080060008301846106ae565b92915050565b600082825260208201905092915050565b6000610822826108af565b915061082d836108af565b9250817fffffffffffffffffffffffffffffffffffffffffffffffffffffffffffffffff0483118215151615610866576108656108b9565b5b828202905092915050565b600061087c8261088f565b9050919050565b60008115159050919050565b600073ffffffffffffffffffffffffffffffffffffffff82169050919050565b6000819050919050565b7f4e487b7100000000000000000000000000000000000000000000000000000000600052601160045260246000fd5b7f4e6f7420706f737369626c650000000000000000000000000000000000000000600082015250565b7f726567697374657220666f722077616c6c657400000000000000000000000000600082015250565b7f696e76616c69642074696d650000000000000000000000000000000000000000600082015250565b61096c81610871565b811461097757600080fd5b50565b61098381610883565b811461098e57600080fd5b50565b61099a816108af565b81146109a557600080fd5b5056fea2646970667358221220b39dd0207e8324ad9e66f238d092c4e7e198590008bab12a25bfc8ec9a1bf11064736f6c63430008040033",
  "linkReferences": {},
  "deployedLinkReferences": {}
}