{
  "_format": "hh-sol-artifact-1",
  "contractName": "LizToken",
  "sourceName": "contracts/LizToken.sol",
  "abi": [
    {
      "inputs": [
        {
          "internalType": "uint256",
          "name": "_totalSupply",
          "type": "uint256"
        },
        {
          "internalType": "uint256",
          "name": "_decimals",
          "type": "uint256"
        },
        {
          "internalType": "string",
          "name": "_name",
          "type": "string"
        },
        {
          "internalType": "string",
          "name": "_symbol",
          "type": "string"
        }
      ],
      "stateMutability": "nonpayable",
      "type": "constructor"
    },
    {
      "anonymous": false,
      "inputs": [
        {
          "indexed": true,
          "internalType": "address",
          "name": "owner",
          "type": "address"
        },
        {
          "indexed": true,
          "internalType": "address",
          "name": "spender",
          "type": "address"
        },
        {
          "indexed": false,
          "internalType": "uint256",
          "name": "value",
          "type": "uint256"
        }
      ],
      "name": "Approval",
      "type": "event"
    },
    {
      "anonymous": false,
      "inputs": [
        {
          "indexed": true,
          "internalType": "address",
          "name": "from",
          "type": "address"
        },
        {
          "indexed": true,
          "internalType": "address",
          "name": "to",
          "type": "address"
        },
        {
          "indexed": false,
          "internalType": "uint256",
          "name": "value",
          "type": "uint256"
        }
      ],
      "name": "Transfer",
      "type": "event"
    },
    {
      "inputs": [
        {
          "internalType": "address",
          "name": "owner",
          "type": "address"
        },
        {
          "internalType": "address",
          "name": "spender",
          "type": "address"
        }
      ],
      "name": "allowance",
      "outputs": [
        {
          "internalType": "uint256",
          "name": "",
          "type": "uint256"
        }
      ],
      "stateMutability": "view",
      "type": "function"
    },
    {
      "inputs": [
        {
          "internalType": "address",
          "name": "spender",
          "type": "address"
        },
        {
          "internalType": "uint256",
          "name": "value",
          "type": "uint256"
        }
      ],
      "name": "approve",
      "outputs": [
        {
          "internalType": "bool",
          "name": "",
          "type": "bool"
        }
      ],
      "stateMutability": "nonpayable",
      "type": "function"
    },
    {
      "inputs": [
        {
          "internalType": "address",
          "name": "_who",
          "type": "address"
        }
      ],
      "name": "balanceOf",
      "outputs": [
        {
          "internalType": "uint256",
          "name": "",
          "type": "uint256"
        }
      ],
      "stateMutability": "view",
      "type": "function"
    },
    {
      "inputs": [],
      "name": "decimals",
      "outputs": [
        {
          "internalType": "uint256",
          "name": "",
          "type": "uint256"
        }
      ],
      "stateMutability": "view",
      "type": "function"
    },
    {
      "inputs": [],
      "name": "name",
      "outputs": [
        {
          "internalType": "string",
          "name": "",
          "type": "string"
        }
      ],
      "stateMutability": "view",
      "type": "function"
    },
    {
      "inputs": [],
      "name": "symbol",
      "outputs": [
        {
          "internalType": "string",
          "name": "",
          "type": "string"
        }
      ],
      "stateMutability": "view",
      "type": "function"
    },
    {
      "inputs": [],
      "name": "totalSupply",
      "outputs": [
        {
          "internalType": "uint256",
          "name": "",
          "type": "uint256"
        }
      ],
      "stateMutability": "view",
      "type": "function"
    },
    {
      "inputs": [],
      "name": "totalSupply_",
      "outputs": [
        {
          "internalType": "uint256",
          "name": "",
          "type": "uint256"
        }
      ],
      "stateMutability": "view",
      "type": "function"
    },
    {
      "inputs": [
        {
          "internalType": "address",
          "name": "to",
          "type": "address"
        },
        {
          "internalType": "uint256",
          "name": "value",
          "type": "uint256"
        }
      ],
      "name": "transfer",
      "outputs": [
        {
          "internalType": "bool",
          "name": "",
          "type": "bool"
        }
      ],
      "stateMutability": "nonpayable",
      "type": "function"
    },
    {
      "inputs": [
        {
          "internalType": "address",
          "name": "from",
          "type": "address"
        },
        {
          "internalType": "address",
          "name": "to",
          "type": "address"
        },
        {
          "internalType": "uint256",
          "name": "value",
          "type": "uint256"
        }
      ],
      "name": "transferFrom",
      "outputs": [
        {
          "internalType": "bool",
          "name": "",
          "type": "bool"
        }
      ],
      "stateMutability": "nonpayable",
      "type": "function"
    }
  ],
  "bytecode": "0x608060405260066002556040518060400160405280600981526020017f4c697a20546f6b656e0000000000000000000000000000000000000000000000815250600490805190602001906200005692919062000167565b506040518060400160405280600381526020017f4c544b000000000000000000000000000000000000000000000000000000000081525060059080519060200190620000a492919062000167565b50348015620000b257600080fd5b5060405162001697380380620016978339818101604052810190620000d89190620002a0565b83600381905550826002819055508160049080519060200190620000fe92919062000167565b5080600590805190602001906200011792919062000167565b506003546000803373ffffffffffffffffffffffffffffffffffffffff1673ffffffffffffffffffffffffffffffffffffffff1681526020019081526020016000208190555050505050620004d2565b8280546200017590620003dd565b90600052602060002090601f016020900481019282620001995760008555620001e5565b82601f10620001b457805160ff1916838001178555620001e5565b82800160010185558215620001e5579182015b82811115620001e4578251825591602001919060010190620001c7565b5b509050620001f49190620001f8565b5090565b5b8082111562000213576000816000905550600101620001f9565b5090565b60006200022e620002288462000367565b6200033e565b9050828152602081018484840111156200024757600080fd5b62000254848285620003a7565b509392505050565b600082601f8301126200026e57600080fd5b81516200028084826020860162000217565b91505092915050565b6000815190506200029a81620004b8565b92915050565b60008060008060808587031215620002b757600080fd5b6000620002c78782880162000289565b9450506020620002da8782880162000289565b935050604085015167ffffffffffffffff811115620002f857600080fd5b62000306878288016200025c565b925050606085015167ffffffffffffffff8111156200032457600080fd5b62000332878288016200025c565b91505092959194509250565b60006200034a6200035d565b905062000358828262000413565b919050565b6000604051905090565b600067ffffffffffffffff82111562000385576200038462000478565b5b6200039082620004a7565b9050602081019050919050565b6000819050919050565b60005b83811015620003c7578082015181840152602081019050620003aa565b83811115620003d7576000848401525b50505050565b60006002820490506001821680620003f657607f821691505b602082108114156200040d576200040c62000449565b5b50919050565b6200041e82620004a7565b810181811067ffffffffffffffff8211171562000440576200043f62000478565b5b80604052505050565b7f4e487b7100000000000000000000000000000000000000000000000000000000600052602260045260246000fd5b7f4e487b7100000000000000000000000000000000000000000000000000000000600052604160045260246000fd5b6000601f19601f8301169050919050565b620004c3816200039d565b8114620004cf57600080fd5b50565b6111b580620004e26000396000f3fe608060405234801561001057600080fd5b506004361061009e5760003560e01c8063324536eb11610066578063324536eb1461015d57806370a082311461017b57806395d89b41146101ab578063a9059cbb146101c9578063dd62ed3e146101f95761009e565b806306fdde03146100a3578063095ea7b3146100c157806318160ddd146100f157806323b872dd1461010f578063313ce5671461013f575b600080fd5b6100ab610229565b6040516100b89190610e51565b60405180910390f35b6100db60048036038101906100d69190610d3a565b6102b7565b6040516100e89190610e36565b60405180910390f35b6100f961041b565b6040516101069190610ed3565b60405180910390f35b61012960048036038101906101249190610ceb565b610425565b6040516101369190610e36565b60405180910390f35b610147610873565b6040516101549190610ed3565b60405180910390f35b610165610879565b6040516101729190610ed3565b60405180910390f35b61019560048036038101906101909190610c86565b61087f565b6040516101a29190610ed3565b60405180910390f35b6101b36108c7565b6040516101c09190610e51565b60405180910390f35b6101e360048036038101906101de9190610d3a565b610955565b6040516101f09190610e36565b60405180910390f35b610213600480360381019061020e9190610caf565b610bd5565b6040516102209190610ed3565b60405180910390f35b600480546102369061100f565b80601f01602080910402602001604051908101604052809291908181526020018280546102629061100f565b80156102af5780601f10610284576101008083540402835291602001916102af565b820191906000526020600020905b81548152906001019060200180831161029257829003601f168201915b505050505081565b600082600073ffffffffffffffffffffffffffffffffffffffff168173ffffffffffffffffffffffffffffffffffffffff16141561032a576040517f08c379a000000000000000000000000000000000000000000000000000000000815260040161032190610e73565b60405180910390fd5b82600160003373ffffffffffffffffffffffffffffffffffffffff1673ffffffffffffffffffffffffffffffffffffffff16815260200190815260200160002060008673ffffffffffffffffffffffffffffffffffffffff1673ffffffffffffffffffffffffffffffffffffffff168152602001908152602001600020819055508373ffffffffffffffffffffffffffffffffffffffff163373ffffffffffffffffffffffffffffffffffffffff167f8c5be1e5ebec7d5bd14f71427d1e84f3dd0314c0f7b2291e5b200ac8c7c3b925856040516104089190610ed3565b60405180910390a3600191505092915050565b6000600354905090565b600083826000808373ffffffffffffffffffffffffffffffffffffffff1673ffffffffffffffffffffffffffffffffffffffff168152602001908152602001600020548111156104aa576040517f08c379a00000000000000000000000000000000000000000000000000000000081526004016104a190610eb3565b60405180910390fd5b853385600160008473ffffffffffffffffffffffffffffffffffffffff1673ffffffffffffffffffffffffffffffffffffffff16815260200190815260200160002060008373ffffffffffffffffffffffffffffffffffffffff1673ffffffffffffffffffffffffffffffffffffffff1681526020019081526020016000205481111561056c576040517f08c379a000000000000000000000000000000000000000000000000000000000815260040161056390610e93565b60405180910390fd5b87600073ffffffffffffffffffffffffffffffffffffffff168173ffffffffffffffffffffffffffffffffffffffff1614156105dd576040517f08c379a00000000000000000000000000000000000000000000000000000000081526004016105d490610e73565b60405180910390fd5b87600160008c73ffffffffffffffffffffffffffffffffffffffff1673ffffffffffffffffffffffffffffffffffffffff16815260200190815260200160002060003373ffffffffffffffffffffffffffffffffffffffff1673ffffffffffffffffffffffffffffffffffffffff168152602001908152602001600020546106659190610f60565b600160008c73ffffffffffffffffffffffffffffffffffffffff1673ffffffffffffffffffffffffffffffffffffffff16815260200190815260200160002060003373ffffffffffffffffffffffffffffffffffffffff1673ffffffffffffffffffffffffffffffffffffffff16815260200190815260200160002081905550876000808c73ffffffffffffffffffffffffffffffffffffffff1673ffffffffffffffffffffffffffffffffffffffff1681526020019081526020016000205461072f9190610f60565b6000808c73ffffffffffffffffffffffffffffffffffffffff1673ffffffffffffffffffffffffffffffffffffffff16815260200190815260200160002081905550876000808b73ffffffffffffffffffffffffffffffffffffffff1673ffffffffffffffffffffffffffffffffffffffff168152602001908152602001600020546107bb9190610f0a565b6000808b73ffffffffffffffffffffffffffffffffffffffff1673ffffffffffffffffffffffffffffffffffffffff168152602001908152602001600020819055508873ffffffffffffffffffffffffffffffffffffffff168a73ffffffffffffffffffffffffffffffffffffffff167fddf252ad1be2c89b69c2b068fc378daa952ba7f163c4a11628f55a4df523b3ef8a60405161085a9190610ed3565b60405180910390a3600196505050505050509392505050565b60025481565b60035481565b60008060008373ffffffffffffffffffffffffffffffffffffffff1673ffffffffffffffffffffffffffffffffffffffff168152602001908152602001600020549050919050565b600580546108d49061100f565b80601f01602080910402602001604051908101604052809291908181526020018280546109009061100f565b801561094d5780601f106109225761010080835404028352916020019161094d565b820191906000526020600020905b81548152906001019060200180831161093057829003601f168201915b505050505081565b600033826000808373ffffffffffffffffffffffffffffffffffffffff1673ffffffffffffffffffffffffffffffffffffffff168152602001908152602001600020548111156109da576040517f08c379a00000000000000000000000000000000000000000000000000000000081526004016109d190610eb3565b60405180910390fd5b84600073ffffffffffffffffffffffffffffffffffffffff168173ffffffffffffffffffffffffffffffffffffffff161415610a4b576040517f08c379a0000000000000000000000000000000000000000000000000000000008152600401610a4290610e73565b60405180910390fd5b846000803373ffffffffffffffffffffffffffffffffffffffff1673ffffffffffffffffffffffffffffffffffffffff16815260200190815260200160002054610a959190610f60565b6000803373ffffffffffffffffffffffffffffffffffffffff1673ffffffffffffffffffffffffffffffffffffffff16815260200190815260200160002081905550846000808873ffffffffffffffffffffffffffffffffffffffff1673ffffffffffffffffffffffffffffffffffffffff16815260200190815260200160002054610b219190610f0a565b6000808873ffffffffffffffffffffffffffffffffffffffff1673ffffffffffffffffffffffffffffffffffffffff168152602001908152602001600020819055508573ffffffffffffffffffffffffffffffffffffffff163373ffffffffffffffffffffffffffffffffffffffff167fddf252ad1be2c89b69c2b068fc378daa952ba7f163c4a11628f55a4df523b3ef87604051610bc09190610ed3565b60405180910390a36001935050505092915050565b6000600160008473ffffffffffffffffffffffffffffffffffffffff1673ffffffffffffffffffffffffffffffffffffffff16815260200190815260200160002060008373ffffffffffffffffffffffffffffffffffffffff1673ffffffffffffffffffffffffffffffffffffffff16815260200190815260200160002054905092915050565b600081359050610c6b81611151565b92915050565b600081359050610c8081611168565b92915050565b600060208284031215610c9857600080fd5b6000610ca684828501610c5c565b91505092915050565b60008060408385031215610cc257600080fd5b6000610cd085828601610c5c565b9250506020610ce185828601610c5c565b9150509250929050565b600080600060608486031215610d0057600080fd5b6000610d0e86828701610c5c565b9350506020610d1f86828701610c5c565b9250506040610d3086828701610c71565b9150509250925092565b60008060408385031215610d4d57600080fd5b6000610d5b85828601610c5c565b9250506020610d6c85828601610c71565b9150509250929050565b610d7f81610fa6565b82525050565b6000610d9082610eee565b610d9a8185610ef9565b9350610daa818560208601610fdc565b610db38161109f565b840191505092915050565b6000610dcb600f83610ef9565b9150610dd6826110b0565b602082019050919050565b6000610dee602f83610ef9565b9150610df9826110d9565b604082019050919050565b6000610e11601d83610ef9565b9150610e1c82611128565b602082019050919050565b610e3081610fd2565b82525050565b6000602082019050610e4b6000830184610d76565b92915050565b60006020820190508181036000830152610e6b8184610d85565b905092915050565b60006020820190508181036000830152610e8c81610dbe565b9050919050565b60006020820190508181036000830152610eac81610de1565b9050919050565b60006020820190508181036000830152610ecc81610e04565b9050919050565b6000602082019050610ee86000830184610e27565b92915050565b600081519050919050565b600082825260208201905092915050565b6000610f1582610fd2565b9150610f2083610fd2565b9250827fffffffffffffffffffffffffffffffffffffffffffffffffffffffffffffffff03821115610f5557610f54611041565b5b828201905092915050565b6000610f6b82610fd2565b9150610f7683610fd2565b925082821015610f8957610f88611041565b5b828203905092915050565b6000610f9f82610fb2565b9050919050565b60008115159050919050565b600073ffffffffffffffffffffffffffffffffffffffff82169050919050565b6000819050919050565b60005b83811015610ffa578082015181840152602081019050610fdf565b83811115611009576000848401525b50505050565b6000600282049050600182168061102757607f821691505b6020821081141561103b5761103a611070565b5b50919050565b7f4e487b7100000000000000000000000000000000000000000000000000000000600052601160045260246000fd5b7f4e487b7100000000000000000000000000000000000000000000000000000000600052602260045260246000fd5b6000601f19601f8301169050919050565b7f496e76616c696420616464726573730000000000000000000000000000000000600082015250565b7f496e73756666696369656e7420616c6c6f77616e636520666f7220746869732060008201527f557365722066726f6d206f776e65720000000000000000000000000000000000602082015250565b7f496e73756666696369656e742042616c616e636520666f722055736572000000600082015250565b61115a81610f94565b811461116557600080fd5b50565b61117181610fd2565b811461117c57600080fd5b5056fea2646970667358221220eac764acdb14b52474a538b706fa5e2eb99460a6e72c18f95c54214ae28d454564736f6c63430008040033",
  "linkReferences": {},
  "deployedLinkReferences": {}
}