{
  "_format": "hh-sol-artifact-1",
  "contractName": "TimeLockedWalletFactory",
  "sourceName": "contracts/TimeLockedWalletFactory.sol",
  "abi": [
    {
      "anonymous": false,
      "inputs": [
        {
          "indexed": false,
          "internalType": "address",
          "name": "wallet",
          "type": "address"
        },
        {
          "indexed": false,
          "internalType": "address",
          "name": "from",
          "type": "address"
        },
        {
          "indexed": false,
          "internalType": "address",
          "name": "to",
          "type": "address"
        },
        {
          "indexed": false,
          "internalType": "uint256",
          "name": "createdAt",
          "type": "uint256"
        },
        {
          "indexed": false,
          "internalType": "uint256",
          "name": "unlockDate",
          "type": "uint256"
        },
        {
          "indexed": false,
          "internalType": "uint256",
          "name": "amount",
          "type": "uint256"
        }
      ],
      "name": "Created",
      "type": "event"
    },
    {
      "inputs": [
        {
          "internalType": "address",
          "name": "_user",
          "type": "address"
        }
      ],
      "name": "getWallets",
      "outputs": [
        {
          "internalType": "address",
          "name": "",
          "type": "address"
        }
      ],
      "stateMutability": "view",
      "type": "function"
    },
    {
      "inputs": [
        {
          "internalType": "address",
          "name": "_owner",
          "type": "address"
        },
        {
          "internalType": "uint256",
          "name": "_unlockDate",
          "type": "uint256"
        }
      ],
      "name": "newTimeLockedWallet",
      "outputs": [
        {
          "internalType": "address",
          "name": "wallet",
          "type": "address"
        }
      ],
      "stateMutability": "payable",
      "type": "function"
    }
  ],
  "bytecode": "0x608060405234801561001057600080fd5b506104be806100206000396000f3fe6080604052600436106100295760003560e01c80630a9ef9271461002e578063422c29a41461005e575b600080fd5b610048600480360381019061004391906102bf565b61009b565b6040516100559190610319565b60405180910390f35b34801561006a57600080fd5b5061008560048036038101906100809190610296565b610262565b6040516100929190610319565b60405180910390f35b60008060003373ffffffffffffffffffffffffffffffffffffffff1673ffffffffffffffffffffffffffffffffffffffff168152602001908152602001600020819080600181540180825580915050600190039060005260206000200160009091909190916101000a81548173ffffffffffffffffffffffffffffffffffffffff021916908373ffffffffffffffffffffffffffffffffffffffff1602179055508273ffffffffffffffffffffffffffffffffffffffff163373ffffffffffffffffffffffffffffffffffffffff161461020f576000808473ffffffffffffffffffffffffffffffffffffffff1673ffffffffffffffffffffffffffffffffffffffff168152602001908152602001600020819080600181540180825580915050600190039060005260206000200160009091909190916101000a81548173ffffffffffffffffffffffffffffffffffffffff021916908373ffffffffffffffffffffffffffffffffffffffff1602179055505b7f14d5db8c1f746c7adcbcd13cf8945dd2ac6ad58be52380b8c4933c876f76e1bf813385600f436102409190610395565b863460405161025496959493929190610334565b60405180910390a192915050565b6000819050919050565b60008135905061027b8161045a565b92915050565b60008135905061029081610471565b92915050565b6000602082840312156102a857600080fd5b60006102b68482850161026c565b91505092915050565b600080604083850312156102d257600080fd5b60006102e08582860161026c565b92505060206102f185828601610281565b9150509250929050565b610304816103ef565b82525050565b61031381610421565b82525050565b600060208201905061032e60008301846102fb565b92915050565b600060c08201905061034960008301896102fb565b61035660208301886102fb565b61036360408301876102fb565b610370606083018661030a565b61037d608083018561030a565b61038a60a083018461030a565b979650505050505050565b60006103a082610421565b91506103ab83610421565b9250817fffffffffffffffffffffffffffffffffffffffffffffffffffffffffffffffff04831182151516156103e4576103e361042b565b5b828202905092915050565b60006103fa82610401565b9050919050565b600073ffffffffffffffffffffffffffffffffffffffff82169050919050565b6000819050919050565b7f4e487b7100000000000000000000000000000000000000000000000000000000600052601160045260246000fd5b610463816103ef565b811461046e57600080fd5b50565b61047a81610421565b811461048557600080fd5b5056fea264697066735822122091054db209f4ed47696df059b01a4817c5dbc4de7182f68775c3bbb56e8dbf7c64736f6c63430008040033",
  "linkReferences": {},
  "deployedLinkReferences": {}
}